:0200000080116D
:10000B00758C3C758AB00A32780030B50280F9D213
:10001B0080C28320861912022508B8010479018059
:10002B000EB80208E975F00AA42401F902003A207F
:10003B00851912022508B801047902800EB802084E
:10004B00E975F00AA42402F9020056208419120261
:10005B002508B801047903800EB80208E975F00A87
:10006B00A42403F9020072D283C2822086191202E1
:10007B002508B801047904800EB80208E975F00A66
:10008B00A42404F902009220851912022508B80154
:10009B00047905800EB80208E975F00AA42405F965
:1000AB000200AE20841912022508B80104790680DB
:1000BB000EB80208E975F00AA42406F90200CAD2A8
:1000CB0082C28120861912022508B80104790780A3
:1000DB000EB80208E975F00AA42407F90200EA2019
:1000EB00851912022508B801047908800EB8020898
:1000FB00E975F00AA42408F90201062084191202FA
:10010B002508B801047909800EB80208E975F00AD0
:10011B00A42409F9020122D281C280208600208505
:10012B001912022508B801047900800EB80208E9FB
:10013B0075F00AA42400F902014520840280030211
:02014B00001A98
:10014D0030B40280FB758901758C3C758AB0C28D07
:10015D00D28C75A88212023475900C89187517030C
:10016D0078FDE928F516AB16AC187A001201D612F7
:10017D0002341201EBBA14F71B1CBB00ED75900A8B
:10018D00AB177A001201D61202341201EBBA14F732
:10019D001B1CBBFFED759021AB18AC167A0012013C
:1001AD00D61202341201EBBA14F71B1CBC00ED750C
:1001BD009011AC177A001201D61202341201EBBA6B
:1001CD0014F71B1CBCFFED808CEB75F00A84F51247
:1001DD0085F013EC75F00A84F51485F01522900264
:1001ED0044E51293F5A0D2B1D2B2D2B3C2B012028D
:1001FD002FD2B0E51393F5A0C2B112022FD2B1E503
:10020D001493F5A0C2B212022FD2B2E51593F5A048
:10021D00C2B312022FD2B3223086FD3085FA30845C
:10022D00F7227EC8DEFE22C28C30B50620B4F8D28D
:10023D008C22780002001AC0F9A4B0999282F8803D
:01024D009020
:00000001FF
