:0200000080116D
:10000B00758C3C758AB00A3230B50280FBD280C247
:10001B0083208602740120850274022084027403FB
:10002B00D283C28220860274042085027405208448
:10003B00027406D282C28120860274072085027464
:10004B00082084027409D281C280208602740A209F
:10005B00850274002084B630B40280FB758901756B
:10006B008C3C758AB0C28DD28C75A882759024F8A1
:10007B0025E9F5167517038818AB16AC187A00121C
:10008B0000DB1200F0BA14FA1B1CBB00F0759022B7
:10009B00AB177A001200DB1200F0BA14FA1B1CBB70
:1000AB00FFF0759009AB18AC167A001200DB12004A
:1000BB00F0BA14FA1B1CBC00F075900AAC177A004E
:1000CB001200DB1200F0BA14FA1B1CBCFFF0809C70
:1000DB00EB75F00A84F51285F013EC75F00A84F5D4
:1000EB001485F01522900128E51293F5A0D2B012D9
:1000FB000123C2B0E51393F5A0D2B1120123C2B113
:10010B00E51493F5A0D2B2120123C2B2E51593F513
:10011B00A0D2B3120123C2B37E96DEFE22C0F9A495
:07012B00B0999282F8809068
:00000001FF
